:03000000020A28C9
:0C0A2800787FE4F6D8FD758110020A19F1
:0A0A3E003F065B4F666D7D077F6F7A
:1008C300AB07AA067C007D641209448E088F097C5D
:1008D300007D0AAF03AE021209447C007D0A1209AF
:1008E300448C0A8D0BAE02AF037C007D0A120944CF
:1008F3008C0C8D0DE509900A3E93F58075B0EF7F62
:10090300057E001209FBE50B900A3E932480F580D7
:1009130075B0DF7F057E001209FBE50D900A3E935B
:10092300F58075B0BF7F057E001209FBE50FB4E7C4
:1009330007E50EB40302C2B2E50F450E7002C2B260
:010943002291
:0409F7007F0A7E00F5
:1009FB00D3EF9400EE940040147D6E7C00ED1D70DF
:0D0A0B00011CED4C70F7EF1F70E61E80E33C
:010A180022BB
:0A0A3400758911D2AFD2A9D2AB220E
:1008000020A01E1209F720A018050FE50F700205A1
:100810000EB4E80AE50EB40305E4F50EF50F30A0BA
:10082000FD20A11D1209F720A117E50F450E700646
:10083000750E03750FE8E50F150F7002150E30A148
:10084000FD20A20E1209F720A208E4F50EF50F30E4
:10085000A2FD20A30D1209F720A30720A304B28C48
:1008600080F920A40D1209F720A40720A404B28E59
:1008700080F920A5241209F720A51E740A250FF57A
:100880000FE4350EF50EC3E50F94E8E50E94034032
:1008900005E4F50EF50F30A5FD20A6261209F72078
:1008A000A62074F6250FF50F74FF350EF50ED3E56F
:1008B0000F9400E50E94005006750E03750FE83096
:0308C000A6FD2270
:0F0A1900120A34120800AF0FAE0E1208C380F499
:03000B000209CA1D
:1009CA00C0E0C0D0758C4C758AD00510E510B40211
:1009DA0017751000E50F150F7002150EE50F450E7D
:0D09EA007006C28CF50EF50FD0D0D0E032B3
:03001B000209993E
:10099900C0E0C0D0758D4C758BD00510E510B40240
:1009A9001B751000050FE50F7002050EB4E80DE583
:1009B9000EB40308C28E750E03750FE7D0D0D0E0D0
:0109C90032FB
:10094400BC000BBE0029EF8DF084FFADF022E4CC97
:10095400F875F008EF2FFFEE33FEEC33FCEE9DEC60
:10096400984005FCEE9DFE0FD5F0E9E4CEFD22EDA6
:10097400F8F5F0EE8420D21CFEADF075F008EF2FF0
:10098400FFED33FD4007985006D5F0F222C398FDE1
:050994000FD5F0EA227E
:00000001FF
